:020000040800F2
:1000000080020020A5010008A9010008AB0100083A
:10001000AD010008AF010008B101000800000000B8
:10002000000000000000000000000000B301000814
:10003000B501000800000000B7010008B901000880
:10004000BB010008BB010008BB010008BB010008A0
:10005000BB010008BB010008BB010008BB01000890
:10006000BB010008BB010008BB010008BB01000880
:10007000BB010008BB010008BB010008BB01000870
:10008000BB010008BB010008BB010008BB01000860
:10009000BB010008BB010008BB010008BB01000850
:1000A000BB010008BB010008BB010008BB01000840
:1000B000BB010008BB010008BB010008BB01000830
:1000C000BB010008BB010008BB010008BB01000820
:1000D000BB010008BB010008BB010008BB01000810
:1000E000BB010008BB010008BB01000800F002F8DA
:1000F00000F047F80AA090E8000C82448344AAF17B
:100100000107DA4501D100F03CF8AFF2090EBAE878
:100110000F0013F0010F18BFFB1A43F0010318473B
:100120005427000074270000103A24BF78C878C113
:10013000FAD8520724BF30C830C144BF04680C60ED
:10014000704700000023002400250026103A28BF35
:1001500078C1FBD8520728BF30C148BF0B60704739
:10016000662902F03A83002070471FB501F048F974
:1001700004000020002101F09DFEE0601FBD10B5CD
:1001800010BD01F055FA1146FFF7EFFF00F0BEF881
:1001900001F073FA03B4FFF7F2FF03BC00F0DEFDD9
:1001A00030BF000008480047FEE7FEE7FEE7FEE735
:1001B000FEE7FEE7FEE7FEE7FEE7FEE70348044949
:1001C000024A044B70470000ED0000088000002048
:1001D000800200208000002010B500F0BDFB00F080
:1001E000C6FB0446204610BD70B50446A5A000F02D
:1001F00029FE4FF4FA7000F007FCA4A000F022FEE4
:100200004FF4FA7000F000FCA4A000F01BFE4FF4C5
:10021000FA7000F0F9FBA5A000F014FE4FF4FA709C
:1002200000F0F2FBABA000F00DFE4FF4FA7000F00E
:10023000EBFBACA000F006FEB7A000F003FEC0A0F0
:1002400000F000FEC4A000F0FDFD93A000F0FAFD58
:10025000204601F0F3FF05462A460B46C3A000F0F6
:10026000F1FD4FF47A7000F0CFFBCBA000F0EAFD77
:100270004FF4FA7000F0C8FB70BD70B5044681A061
:1002800000F0E0FD4FF4FA7000F0BEFB7FA000F03C
:10029000D9FD4FF4FA7000F0B7FB80A000F0D2FD5A
:1002A0004FF4FA7000F0B0FB80A000F0CBFD4FF4EB
:1002B000FA7000F0A9FB87A000F0C4FD4FF4FA70BB
:1002C00000F0A2FB87A000F0BDFD93A000F0BAFDF6
:1002D0009BA000F0B7FDB1A000F0B4FD6EA000F04F
:1002E000B1FD204601F0AAFF05462A460B46B0A004
:1002F00000F0A8FD4FF47A7000F086FBA6A000F095
:10030000A1FD4FF4FA7000F07FFB70BD092000F0F2
:10031000CAFC482000F05CFBAF48806940F0010057
:10032000AD498861AD48406820F07F4040F00070E2
:10033000AA494860A848806940F01C00A649886125
:10034000A748A84908604FF03330091D0860012014
:10035000A4490C3108604FF4E131482000F00DFD54
:100360004FF47A7000F050FB9FA000F06BFD4FF44B
:100370007A7000F049FB4FF47A7000F045FB4FF4BF
:100380007A7000F041FB0020994908600FE099A0C5
:1003900000F058FD4FF47A7000F036FB4FF47A709D
:1003A00000F032FB92480068401C91490860904878
:1003B00000680528EBDB4CE04FF47A7000F024FB7A
:1003C000002095490860C82000F01EFB01209349D9
:1003D000C1F8A001C82000F017FB00208E491031A1
:1003E0000860C82000F010FB01208C49C1F8B00162
:1003F000C82000F009FBFFF7EFFE894908600846B6
:100400000068FFF73AFF874801688548006802F0F6
:100410006FF9064601F012FF0446834A834B01F050
:10042000D7FE0ED37F4801687D48006802F060F96E
:10043000064601F003FF04467B4A7D4B01F08EFD2A
:1004400007D277480068FFF7CFFE75480068754906
:100450000860B1E715E00120764908600DE07548B5
:100460000068C0F13201C8227248006800F055F9F6
:1004700070480068401C6F4908606E480068322868
:10048000EDDBE8E741540D0A0000000041542B4326
:1004900049504D55583D300D0A00000041542B4342
:1004A00049504D4F44453D310D0A000041542B4306
:1004B000495053544152543D22544350222C22312E
:1004C00038332E3233302E34302E3333222C383022
:1004D0000D0A000041542B43495053454E440D0A28
:1004E00000000000504F5354202F64657669636507
:1004F000732F31313339323630302F64617461708B
:100500006F696E74733F747970653D33204854543D
:10051000502F312E310A00006170692D6B65793AD8
:1005200053436A6B766A4738534C45677341516F42
:100530004D6B5A714F6C38567073553D0A00000070
:10054000486F73743A6170692E6865636C6F756487
:10055000732E636F6D0A0000436F6E74656E742DA9
:100560004C656E6774683A34300A00007B2254652B
:100570006D70657261747572655F64223A25322E02
:1005800032662C2248756D6964697479223A373471
:100590002E36317D000000002B2B2B00436F6E7434
:1005A000656E742D4C656E6774683A33380A0000C6
:1005B0007B2254656D7065726174757265223A258F
:1005C000322E32662C2248756D6964697479223A3C
:1005D00037342E36317D000000100240000001400B
:1005E00038733333000C014041542B5253540A00EA
:1005F0000000002041542B43574A41503D225441B2
:10060000432D435543222C227177657274617364C4
:100610006667220D0A000000A0812142008021426D
:10062000100000200C0000209A9999999999C93FCF
:100630009999C9BF0400002010B5002407E0FA2CE6
:1006400001DB204610BD641C142000F0F9F95A4863
:1006500000680128F3D02046F4E710B5002408E034
:10066000B4F5FA7F01DB204610BD641C142000F0B5
:10067000E7F9514800680028F2D02046F4E72DE958
:10068000F0410024002700250026FFF7E6FF04467E
:10069000B4F5FA7F02DAB4F5C87F03DC4FF0FF301F
:1006A000BDE8F081FFF7C8FF0446FA2C01DAC82C38
:1006B00002DC6FF00100F3E700252AE0002625E0C8
:1006C000FFF7CBFF04463C2C01DA142C02DC6FF060
:1006D0000200E5E7FFF7B0FF04463C2C03DB642C87
:1006E00001DA012708E00A2C03DB322C01DA0027AB
:1006F00002E06FF00300D3E73048006840002F4964
:1007000008600846006838430860761C082ED7DB6E
:100710006D1C042DD2DB0020C2E72DE9F041044618
:100720000D4616460027601996FBF0F600BF0EE056
:100730000020214984310860A0B200F065F9012051
:100740001F49C1F88401A8B200F05EF97F1CB742CE
:10075000EEDBBDE8F0812DE9F04106460C4615467A
:1007600000BF301995FBF0F04FF47A7100FB01F5F2
:1007700000270EE00020104988310860304600F064
:100780005FF901200E49C1F88801204600F058F9B0
:100790007F1CAF42EEDBBDE8F08110B5002402E023
:1007A000012000F04DF9044800680128F8D0FFF757
:1007B00066FF0446204610BD00812142140000203F
:1007C0000080214200EBC0014FF0E0225161114650
:1007D000096941F00101116100BF4FF0E021096991
:1007E00001F480310029F8D000214FF0E02211619E
:1007F0009161704700B50120724908603220FFF70F
:10080000E1FF00207049C1F88C014FF4FA70FFF746
:10081000D9FF01206B4908602820FFF7D3FF00BFF4
:100820006848803800680028FAD14FF4FA70FFF762
:10083000C9FF012063490860184600BD10B5034692
:1008400008241BE000205F4908600520FFF7BAFF7D
:1008500003F0010018B101205A49086002E00020AD
:10086000584908604120FFF7ADFF01205549086055
:100870000220FFF7A7FF5B10601EC4B2002CE1DC72
:1008800010BD10B501204F4908600520FFF79AFF01
:1008900008241EE05B1000204A4908600520FFF78D
:1008A00091FF01204849C1F88C010520FFF78AFF1C
:1008B00044488038006810B143F0800301E003F041
:1008C0007F034120FFF77EFF01203E490860601E44
:1008D000C4B2002CDEDC184610BD30B5044633200F
:1008E000FFF7ACFF082505E0FFF7CBFF2070641C85
:1008F000681EC5B2002DF7DC30BD70B506460C464B
:100900001546FFF777FFCC20FFF798FF4E20FFF743
:1009100095FF2846FFF792FF2046FFF78FFF3046EE
:10092000FFF78CFFFFF766FFCC20FFF787FF48201B
:10093000FFF784FF00BF2348803800680028FAD002
:1009400070BD00B5FFF756FFCC20FFF777FF4420BE
:10095000FFF774FF00BD704700B5FFF7FCFF8A2268
:1009600064217F20FFF7C9FFFFF7EBFF00BD2DE9F2
:10097000F84FFFF7E6FFFFF73DFFCC20FFF75EFFE4
:10098000BE20FFF75BFFFFF77CFF8246FFF779FF92
:1009900081464C464FF6FF7000EA042444EA0A04FC
:1009A000204601F0BBFD009001F048FC0746002204
:1009B000064B01F00FFB054601F092FA83465846BC
:1009C000BDE8F88F8C812142008021420000B03FB9
:1009D0004FF0E021096921F004014FF0E02211619C
:1009E000C21700EB5272C2F3C702234B1A701946AA
:1009F000097801EB4102C2EBC1114FF6FF7202EA26
:100A0000C1011E4A1180704701461C4A12884A43A0
:100A10004FF0E0235A6100229A6101221A6100BF5F
:100A20004FF0E022106900F001021AB100F48032A8
:100A3000002AF5D000224FF0E0231A619A61704736
:100A400001460D4A12784A434FF0E0235A610022D2
:100A50009A6101221A6100BF4FF0E022106900F094
:100A600001021AB100F48032002AF5D000224FF0C2
:100A7000E0231A619A617047180000201A000020D4
:100A8000AA4A0A400243AA4B1A607047014607234C
:100A900023EA01021202A64B1B1D18684FF6FF0342
:100AA0001840A44B18431043A14B1B1D18607047FE
:100AB0002DE9F0478046894614461D462046E11739
:100AC00004EB9171C1F3870AE11704EB917189106E
:100AD000A4EB8101CFB2042000EBC700C7B22846C7
:100AE000FFF7D4FFC5F1040008FA00F60F202841F3
:100AF00000EA0900064306F00F06202C09DA8E48AA
:100B000001680120A04001434FF0E020C0F800112F
:100B10000BE08948001D0068A4F1200101228A40F1
:100B200010434FF0E021C1F80401844850F82A0036
:100B300006FA07F10843814941F82A00BDE8F08729
:100B400070B504460B46CE1701EB9676C6F38700C8
:100B5000CE1701EB9676B610A1EB8606B606350EDB
:100B6000774B9B6943F00103754EB3614FEAB6338F
:100B700053F820300F26AE40B343724E46F8203073
:100B8000334653F8203004FA05F61E436D4B43F804
:100B900020606D4B1B6801268E4033436A4E3360E4
:100BA00002F0010343B1684B0C331B6801268E40F1
:100BB0003343654E0C36336002F0020343B1624B9F
:100BC00008331E6801238B401E435F4B08331E60B1
:100BD00070BD00B500205A490861C8601420486102
:100BE00000208861C8610846006840F00100086084
:100BF0000846406855490840514948600846006821
:100C0000534908404E4908600846006820F4802097
:100C100008600846406820F4FE00486000208860B4
:100C200000214FF00060FFF72BFF00BD10B54048DA
:100C30000830006840F004003D4908310860404831
:100C4000C06940F080503E49C8614248406840F465
:100C50008070404948600846006840F00400086021
:100C60000846006840F002000860FFF799FA10BDDE
:100C70003048001D2E49091D08607047014649068D
:100C80002F4A926942F001022D4B9A612D4A083A8F
:100C9000526822F0E0622B4B083B5A601A465268B9
:100CA0000A435A60704730B504460025FFF791FFAC
:100CB0002348006840F480302149086000BF204884
:100CC0000068400C0028FAD04FF480601C4948604E
:100CD000A01EC4B20846406840EA84404860084606
:100CE000406840F4803048601B48006840F03200A3
:100CF000194908601248006840F080701049086087
:100D000000BF0F480068400E0028FAD00C48406829
:100D100040F002000A49486005E009484068C0F315
:100D2000870505F00305022DF7D130BD80FFFF1FB9
:100D300008ED00E00000FA0500E100E000E400E05A
:100D40000010024008000140000401400000FFF8CC
:100D5000FFFFF6FE0070004000200240014600BF89
:100D6000704700BF324A128802F04002002AF9D0D0
:100D7000C2B22F4B1B1D1A8070472DE9F05F05464C
:100D80000E46300101F0CAFB81462A4905FB01F0FD
:100D900001F0C4FB8246494601F0DEFA07463846B8
:100DA00001F09CFB84B2204601F0B8FB8346394633
:100DB00001F094FC82464FF0834101F0C3FB814671
:100DC00001F08CFB80464FF6FF7000EA041404EB40
:100DD000080084B21848806940F004001649886110
:100DE0000846806940F4804088611448006820F417
:100DF0007F60124908600846006840F40B60086094
:100E00000D48C06840F480400B49C8600846C0687F
:100E100020F48040C860064808300480001D008827
:100E200042F20C01084302490C310880BDE8F09FF2
:100E30000038014040420F00001002400408014009
:100E4000704700000FB4044910B503AA029800F0DF
:100E5000C5FA10BC5DF814FB1C00002070B50446F8
:100E600085690068C10601D5302600E02026C0074C
:100E700007D070BDD4E9012130469047206A401C5C
:100E800020626D1EF6D570BD70B504468569007888
:100E9000C00707D170BDD4E9012120209047206A06
:100EA000401C20626D1EF6D570BD2DE9F0474FF055
:100EB000000A89460446C0F820A02046E168884719
:100EC000002876D0252806D0D4E901219047206A51
:100ED000401C2062F1E7E168204600258847C4F8FD
:100EE0001CA006460027C4F818A02A2E09D03046B8
:100EF00000F0D9FF38B304EB8708303EC8F818601B
:100F000019E059F8041B204604EB87029161E1685F
:100F10008847012F064618D1E069002820DA25F01D
:100F200020051DE0D8F8180000EB800006EB40001B
:100F30003038C8F818002046E1688847064600F0B7
:100F4000B2FF0028EED1012F0AD02E2E08D1204664
:100F5000E16888477F1C0646022F45F02005C4DB68
:100F6000A069002803DA404245F00105A061E807C6
:100F700001D025F01005B6B1A6F14100192802D81C
:100F8000203645F400654A463146204625604D46E8
:100F9000FFF7E6F858B1012806D0ED1D25F007004F
:100FA00000F1080989E704E005F1040985E7304606
:100FB0008AE7206ABDE8F08770477047704770473E
:100FC00070472DE9FF4F0C461E464FF0FF378BB0A0
:100FD000D2E90001DDF860800A908A46C1F30A5523
:100FE00005B93D46002108464FF00000BAF1000F58
:100FF00000F4400005DA00EB80004FF4400101EA04
:1010000050004FEA9059B9F1010F00DDB9460A9836
:1010100050EA4A000ED044F61050A5F2FF35454381
:101020002F14B8F1000F1ED07542291E1EDDC9F124
:1010300000021CE0B8F1010F4FF0000001D0302198
:1010400003E0F24305E02154401CB042FBDB304694
:101050000022002121540B99C1F80880C1E9002029
:101060000FB0BDE8F08FBD1B6D1CDEE74A4600DA0D
:10107000694206A800F066FA06AB93E8070003ABE6
:1010800083E8070050460A9900F03EFB8DE8070010
:10109000A0F500501F3800900398002D09DD42F2A2
:1010A0001F014A46084403A90390684600F09DFDCD
:1010B00008E0A0F500504A461F3803A9039068468F
:1010C00000F0A7FD8DE807000004000C03D04FF0EE
:1010D000FF30410800E01046B8F1000F03D00022B5
:1010E000009215461EE0751E05D400F08DF93032D1
:1010F00062556D1EF9D5B3460122084302D0002285
:101100007F1C04E02078302801D100227F1E002AB5
:10111000099786D01DE0112D07DA00F075F93032FD
:1011200062556D1C50EA0102F5D1084302D00098C7
:10113000C8B10EE00021681E05E0235C625C6354C8
:101140002254401E491C8142F7DBAB46A81B401EBF
:101150000990002004F80B000B98099AC0F8088049
:10116000C0E9002B7CE711264FF0000859E72DE974
:10117000F04F88460446D21D22F0070191B0D1E914
:101180000001CDE90A0100F07AFE02460B98C00F7B
:1011900001D02D2007E02068810701D52B2002E037
:1011A000202101EAC000032A099001D0072A05DBAB
:1011B00003464146204600F085F90BE12078800681
:1011C00001D5E06900E00620B8F1650F814606D040
:1011D000B8F1660F18D0B8F1670F70D131E0002078
:1011E000B9F1110F009001DB112301E009F10103B6
:1011F0000AAA01A90CA8FFF7E4FEDDE90C7000269D
:1012000009F10105834647E001204B4600904FF06D
:1012100000470AAA01A90CA8FFF7D3FEDDE90DB02B
:101220000C995D46002610B909F101000D18B9EBC3
:10123000050003D4C0F1FF3609F10105A5EB090053
:101240002BE0B9F1010F01DA4FF001090020B9F1EB
:10125000110F0090484601DD112300E003460AAA61
:1012600001A90CA8FFF7ADFEDDE90C704D46002684
:101270008346207800070AD4AB4500DA5D4601A812
:10128000012D04DD411911F8011C302907D04F450B
:1012900002DA17F1040F04DA012082460FE06D1E16
:1012A000EEE7002F02DCED1B3E4403E0781CA84271
:1012B00000DD7D1CB81B00F1010A4FF000472078CB
:1012C000000703D4AA4501DB4FF0FF3A0021B7F134
:1012D000004F0DF143088DF8431024D002202B233A
:1012E000002F01DA7F422D230A21021EA0F1010006
:1012F00000DC5FB197FBF1FC97FBF1F201FB1C7C7A
:1013000017460CF1300C08F801CDEEE7A8F101000A
:1013100003702188090501D5452100E06521A0F170
:10132000010800F8011C09980FA9A1EB0807FF1D8F
:1013300000B10120411901EBEA70A1693844081A93
:10134000401EA0612078C00602D42046FFF786FD2B
:10135000099828B1D4E901219047206A401C2062F5
:101360002078C00622D52046FFF778FD1EE0002E2B
:1013700004DBB34502DD01A8805D00E03020D4E944
:1013800001219047206A401C2062761CAAF10100CE
:101390005FEA000A0AD100F033F8C0680168405CD7
:1013A000D4E901219047206A401C2062281EA5F143
:1013B0000105DCDC07E0D4E9012118F8010B9047B6
:1013C000206A401C2062381EA7F10107F3DC20468A
:1013D000FFF75AFD032011B043E60000074B70B53C
:1013E0000D467B4400F05BF80446284600F018F9EF
:1013F00010B14FF0FF3070BD204670BD7DF9FFFF8A
:10140000004870474000002030B5B0F10A024FEAB2
:10141000900E71F100034EEA817EB0EB0E0061EB9D
:1014200091014FEA101E4EEA017E10EB0E0041EBD7
:1014300011114FEA102E4EEA016E10EB0E0041EB37
:1014400011214FEA104E4EEA014E10EB0E0041EB17
:101450001141401841F100014FEAD00040EA4170CB
:101460004FEAD10110EB80054FEA810444EA907401
:1014700044EB01046D1944EB0404521BA3414FF0EB
:10148000000348BF0A3200D530BD401C41F10001C5
:1014900030BD000001694A1C02610878704700B540
:1014A0008FB0CDE901310021059105497944CDE99D
:1014B000031011466846FFF7F8FC0FB000BD0000AE
:1014C000E5FFFFFF2DE9F0411F46044603260168B2
:1014D000072A01F4006004DB08B116A505E016A593
:1014E00003E008B115A500E015A521F0100020606B
:1014F000A069C01EA0610FB1401EA0612046FFF789
:10150000ADFC4FB1D4E9012138469047206A401C18
:101510002062C01C206206E0206AFAE7D4E90121BB
:1015200015F8010B9047761EF8D22046FFF7ACFC69
:10153000BDE8F0814E414E006E616E00494E46009E
:10154000696E66002DE9F047814616468AB0334839
:1015500078440DC88DE80D0030487844801C03ACF9
:101560000DC884E80D0041F69B300844372190FBFC
:10157000F1F290FBF1F5A5F1800501FB12041B3C93
:1015800002D56442012000E00020DFF890A08046F0
:101590000027FA44AAF1BE0A0DE0E00709D032465E
:1015A000684607EB47010AEB810100F032FB8DE84A
:1015B000070064107F1C002CEFD1184F7F44AC3F14
:1015C00018E0E80714D007EB04100DF1180A90E8B2
:1015D0000E008AE80E00C068F04201D19819089008
:1015E000324606A903A800F014FB03AB83E807000A
:1015F0006D10641C002DE4D132466946B8F1000F2D
:1016000003A802D000F0F1FA01E000F002FBC9E902
:101610000001C9F808200AB0BDE8F08708130000EF
:10162000007B00F0800070470048704720000020D9
:101630007546FFF7F9FFAE4605006946534620F0B0
:101640000700854618B020B5FEF7B8FDBDE820407C
:101650004FF000064FF000074FF000084FF0000B6E
:1016600021F00701AC46ACE8C009ACE8C009ACE821
:10167000C009ACE8C0098D4670470446AFF300804E
:101680002046FEF787FD00004FF0013C50F8042B88
:1016900051F8043B9A4221D1A2EB0C03934313EA85
:1016A000CC1317D150F8042B51F8043B9A4215D1B2
:1016B000A2EB0C03934313EACC130BD150F8042B89
:1016C00051F8043B9A4209D1A2EB0C03934313EA6D
:1016D000CC13DBD04FF00000704700BFD01A01BA26
:1016E000B1FA81F101F0180122FA01F0CB40C1F109
:1016F0002001DBB2C0B2C01A2CFA01F3D11A914317
:1017000011EAC311E6D170475FEA400C08BF91F0BF
:10171000000F4FEA8C234FEAC12243EA51514FEAAE
:101720001C5018BF00F5F0404FEA300018BF41F0E0
:1017300000415FEA6C5C00F02980BCF1FF3F08BF0C
:1017400040F080407047130C06BF12044FF0100C9D
:101750004FF0000C130E04BF12020CF1080C130F13
:1017600004BF12010CF1040C930F04BF92000CF1A2
:10177000020CD30F04BF52000CF1010C11464FF0C4
:101780000002A0F11F00A0EB0C00704711F0004F09
:1017900008BF704731F000413FF4D5AF0B0C06BFD6
:1017A00009044FF0100C4FF0000C0B0E04BF09029F
:1017B0000CF1080C0B0F04BF09010CF1040C8B0F8A
:1017C00004BF89000CF1020CCB0F04BF49000CF1DF
:1017D000010CCCF12003A0EB0C0022FA03F302FA77
:1017E0000CF241EA030100F10100704720F07F4C48
:1017F00080EA030023F07F47ACEB070303F57C533B
:1018000000F0004003F1FF032DE980494FEA154B3A
:1018100009B44FEA144325EA0B4E24EA03480FF2B9
:10182000042606EB132749083E785FEA320203FBE1
:101830000667C7F5000707FB06F64FEA54374FEA7D
:10184000D64606F1020607FB066CCCF1005C4FEAB7
:101850001C472CEA074C07FB06F40CFB06F504EBCF
:1018600015464FEA961634BF00204FF000404FEA6D
:10187000D13706FB07FC4FEA1C4C0CFB0BF7D21BC5
:1018800003FB0CF761EB07010CFB0EF7B0EB074015
:1018900072EB17420CFB08F734BFA2EB0742B2EB26
:1018A000074261EB17414FEA0C444FEA910706FBF0
:1018B00007FC4FEA1C4C0CFB0BF7B0EBC74072EB7C
:1018C000573203FB0CF734BFA2EBC742B2EBC7425F
:1018D00061EB57310CFB0EF7B0EBC70072EB5772A0
:1018E0000CFB08F734BFA2EBC702B2EBC70261EBF7
:1018F0005771039F4FEA816141EA921104EBCC04D6
:101900004FEAD1374FEA826206FB07FC42EA9012A7
:101910004FEA80604FEA1C4C0CFB0BF7D21B03FB19
:101920000CF761EB07010CFB0EF7B0EB074072EB15
:1019300017420CFB08F734BFA2EB0742B2EB074299
:1019400061EB17414FEA8C554FEA910704EB9C2459
:1019500006FB07FC4FEA1C4C0CFB0BF7B0EBC74037
:1019600072EB573203FB0CF734BFA2EBC742B2EB6A
:10197000C74261EB57310CFB0EF7B0EBC70072EBBF
:1019800057720CFB08F734BFA2EBC702B2EBC702D9
:1019900061EB577115EB4C254FEA816141EA9211D9
:1019A0004FEA82624FEAD13742EA901206FB07FC07
:1019B00044F100044FEA80604FEA1C4C0CFB0BF72B
:1019C000D21B03FB0CF761EB07010CFB0EF7B0EB2E
:1019D000074072EB17420CFB08F734BFA2EB07423B
:1019E000B2EB074261EB174115EB1C154FEA813151
:1019F00041EA92414FEA823242EA90424FEA803015
:101A00004FEA0C7644F1000448EA03434EEA0B48DF
:101A10004FF0000EB2EB080C71EB030724BF6246D7
:101A200039464EEB0E0E4FF0000B00185241494163
:101A30004BEB0B0BB2EB080C71EB03077BF1000BCC
:101A400024BF624639464EEB0E0E4FF0000B0018D5
:101A5000524149414BEB0B0BB2EB080C71EB030706
:101A60007BF1000B24BF624639464EEB0E0E51EA65
:101A7000020718BF46F0010616EB0E7655F100027C
:101A800054F1000103D5BDE88901BDE80088BDE837
:101A90008901BDE80048B619524141EB0101A3F1AB
:101AA0000103704780807F7E7D7C7B7A79787776B2
:101AB00076757473727171706F6E6E6D6C6C6B6A2B
:101AC0006A696868676666656464636362616160C9
:101AD000605F5F5E5E5D5D5C5C5B5B5A5A59595846
:101AE00058575756565555555454535352525251B0
:101AF000515050504F4F4F4E4E4D4D4D4C4C4C4B06
:101B00004B4B4A4A4A49494948484847474747464C
:101B10004646454545444444444343434342424288
:101B200042414141002B26D4770021D01CB54FEA19
:101B3000370703B44FF010004FF010014FF00000D2
:101B40000FBCBDE810400BF1010BBBF1010F08BF4A
:101B50005FEA170722BF12F1010211F101014FF0F4
:101B6000004143F1000300F0004043EA00007047E9
:101B7000F9D35708DAE746EA064613F1400F4FEA71
:101B800016461FDD13F1200FDFBF16430A46002162
:101B900020335B42C8D0C3F1200746EA064602FA6A
:101BA00007F74FEA164646EA0706C3F1200722FA6E
:101BB00003F201FA07F721FA03F14FF0000342EABA
:101BC0000702B1E746EA020646EA06464FEA16462B
:101BD00046EA0106BCBF46EA0646360C4FF0000353
:101BE0004FF000024FF000019EE72DE9C0489346F8
:101BF00030B491E8380007C831EA400C48BF34EAF5
:101C0000430C03D5FFF7F2FDFFF78CFFF0BCBDE8F6
:101C100000882DE9C048934630B491E8380007C8E1
:101C200010F0804F08BF13F0804F03D100F005F88B
:101C3000FFF778FFF0BCBDE8008820F07F4780EA1E
:101C4000030023F07F4C07EB0C03A3F57C5300F05B
:101C50000040A3F1FE0392F0000F00F0B38095F076
:101C6000000F00F077802DE901494FEA11404FEA5B
:101C7000144621EA004800FB06FC24EA064708FB5C
:101C800006F607FB08F800FB07F718EB06484CEBD5
:101C9000164C4FEA124B18EB07484FEA15464CEB2F
:101CA000174022EA0B4E0BFB06FC25EA06470EFB0B
:101CB00006F607FB0EFE0BFB07F71EEB064E4CEB82
:101CC000164C4FF000061EEB074E4CEB174B18EB73
:101CD0000B0840F1000018EB0E0B58EB000840F128
:101CE00000008F1A4FF000013CBFC943661B14BFB0
:101CF000B5EB040C00213CBFC943F61B4FEA174467
:101D00004EEA8E0E27EA04454FEA1C4704FB0762A1
:101D10002CEA074C05FB07F70CFB05F604FB0CFC53
:101D200016EB074642EB174216EB0C4642EB1C4201
:101D30001BEB060658EB0202414146EA9E0601D51E
:101D4000BDE80189B619524141EB0101A3F101033C
:101D5000BDE801894FEA14454FEA114724EA0546D8
:101D600021EA074C05FB07F406FB07F70CFB06F11D
:101D700005FB0CFC11EB074144EB17444FEA1247FB
:101D800011EB0C4144EB1C4422EA074C05FB07F223
:101D900006FB07F70CFB06F605FB0CFC16EB0746EB
:101DA00042EB174216EB0C4642EB1C456A1854F105
:101DB000000148BF7047B619524141EB0101A3F140
:101DC0000103704795F0000F37D04FEA11424FEAF8
:101DD000144721EA024624EA074C02FB07F106FBFE
:101DE00007F70CFB06F402FB0CFC14EB074441EB79
:101DF00017414FEA154714EB0C4441EB1C4125EA0F
:101E0000074C02FB07F506FB07F70CFB06F602FB87
:101E10000CFC16EB074645EB174516EB0C4645EB5D
:101E20001C42121951F1000148BF7047B6195241C6
:101E300041EB0101A3F1010370474FEA14454FEA5A
:101E4000114724EA054621EA074C05FB07F106FB8A
:101E500007F70CFB06F24FF0000605FB0CFC12EB3B
:101E6000074241EB174112EB0C4251EB1C4148BFBA
:101E70007047921841EB0101A3F10103704749003B
:101E800050EAC12018BF04204A0D18BF40F00100DD
:101E900040F2FF72B2EB515F08BF40F00200012830
:101EA00008BF0520704730380A2801D2012070474A
:101EB0000020704710B500290AD00878002807D004
:101EC00005487844FFF7E0FB002801D0002010BD52
:101ED0000248784410BD0000D2090000CA09000081
:101EE00021F00042A2F16052B2F5801F01F00043E0
:101EF00028BFD2F17F6C0BD95FEA001C43EAC20213
:101F000042EB507018BF704728BF20F001007047A7
:101F1000B2F5801FBCBF184670474FEA410C1CF554
:101F2000001F02D2084600F0D4BB70B500F0FCF8E8
:101F300000000089FFF7F6BF4FF00040A0F58000D9
:101F40007047491058BFC1F140415B1058BFC3F101
:101F500040438B42EFF300807047000051EA030CCE
:101F600017D41CF5801F58BFBCF5801F00F10680F8
:101F7000994218BF704708BF9042704707D711F5C4
:101F8000801F58BF13F5801F19D4994270478942AA
:101F900070471CF5801F08D5BCF5801FF7D58B4214
:101FA00018BF704708BF824270474FF4001C1CEBFB
:101FB000410F38BF1CEB430F01D28B42704770B505
:101FC00000F0B2F8922449004FF000514FF08053D6
:101FD000FFF7B7BFDFF848C170B51CEA111E1EBF7E
:101FE0001CEA13159EEA0C0F95EA0C0F00F06F80A7
:101FF00081EA030423EA4C134EEAD47E21EA4C1111
:1020000041F4801143F48013AE44A1FB024CA0FBC9
:102010000365AEF17F7E361955EB0C05A1FB034C31
:102020004CF10003A0FB021C16EB0C06654153F1BA
:102030000003094218BF46F0010613F4007F0BD1DC
:102040004FEA03314FEA0530340341EA155140EAC3
:1020500016506FF003020AE04FEAC3214FEAC52091
:10206000F40241EA555140EA56506FF0020202EB89
:102070002E4201EB025585EACE710AD05FEA440C8C
:1020800018BF24F0004450F1000041F1000120EAA3
:10209000D47040F2FE7C624500D270BDA84214BFED
:1020A0004FF080444FF04044002E08BF0024BEF1A2
:1020B000806FA8BFA1F1C041BDE8704080F282806E
:1020C0004FF0000001F1C04101F0004170479EEA6D
:1020D0000C0F0CEA131518BF95EA0C0F06D04FF041
:1020E000000081EA030E0EF0004170BD00F01CF804
:1020F0008900013E00F007B800F009B84FEA430C30
:102100005FEA5C5C08D081EA030100F05BB84FEA4B
:10211000410C5FEA5C5CF6D14FF00000014970476A
:102120000000FF070000F87F0EF1020E2EF0030EF4
:102130005EF8046B364205D4012A43EB030515F51E
:10214000001F12D8012841EB010C1CF5001F0CD810
:102150000ED14FEAD17C15F5001F0CEB4C0C0CF1A5
:10216000020C08BF4CEBD37C04E04FF0080C01E0FC
:102170004FEAD37C0CEB4C0526FA05F606F0070671
:10218000B6F1040C06D20EEB860CBDE870404CF0A4
:10219000010C6047DFE80CF0090B02024FF0004130
:1021A0004FF00000A1F5002170BD1946104601282E
:1021B00051EB010418BFD4F5001484BF002001F0D6
:1021C000004170BD0808A0F500114FEA31017047C9
:1021D00053EA010C17D41CF5801F58BFBCF5801FB3
:1021E00000F106808B4218BF704708BF82427047DB
:1021F00007D713F5801F58BF11F5801F19D48B42E4
:1022000070479B4270471CF5801F08D5BCF5801FA6
:10221000F7D5994218BF704708BF904270474FF4F6
:10222000001C1CEB430F38BF1CEB410F01D299423D
:1022300070470FB40CBC03BCFFF7C1BE43004FEAAC
:10224000D30C4FEA3C0C43401FBF40070CF16051D8
:1022500013F0FE4F70471CF0006F03D100200CF00C
:10226000004170470CF0004343EA507010B540EA5B
:10227000CC0000F0E8F900BF000000924FEA000136
:10228000FFF7A0BF4FF000414FF00000A1F5002183
:102290007047000090EA010F48BF81F0004100F153
:1022A0002E82421A3CBF801A89184FEAD0524FF052
:1022B0007F4C1CEA410FA2EBD15318BF9CEA026F7E
:1022C00000F03B804FF0004C4CEA00204CEA01212A
:1022D00021FA03FC10EB0C0C1ED202F1FF325FEA74
:1022E0001C2040EBC25038BF70471CF07F0F4FEAF4
:1022F000400C18BFBCF17F4F38BF7047C3F12003BB
:10230000994008BF20F00100BCF17F4F38BF7047F3
:10231000A0F1C04000F0DDB94FEA3C00000A40EBFC
:10232000C25028BF1CF0FF0F4FEA400CE6D018BF88
:10233000BCF17F4F38BF7047EAE79CEA026F05D0D7
:1023400010EA5C0F08BF00F00040704710B500F0C5
:102350007AF900BF64FBBE3E4FF47F0C1CEAD0123A
:102360001EBF1CEAD11392EA0C0F93EA0C0F00F087
:10237000858090EA010F48BF42F4807240F4000C5F
:1023800041F400002CF07F4120F07F4000B58142F5
:10239000A2EB03020FF2081CACEB504EC0F10000A0
:1023A0009EF800E04FEA4E0E00FB0EFC38BF4900DD
:1023B0004FEA2C1C02F5FA020CFB0EF34FEACE1E7C
:1023C0004FEA112C4FEAC1210EEB635E42EB224231
:1023D0000EFB0CFC4FEA1C5300FB03114FEA112CBF
:1023E0004FEA01310EFB0CFC4FEADC4C00FB0C11F8
:1023F000C14228BF09184CEB03335DF804EB10EB26
:10240000410143EBC250B2F57C0F38BF704729D56C
:1024100012F0F00F1CBF00F1C04000F00040704708
:10242000008182838485868788898B8C8D8E8F91AD
:102430009293959697999A9C9D9FA0A2A3A5A7A8D1
:10244000AAACAEB0B2B3B5B7B9BCBEC0C2C5C7C9FD
:10245000CCCED1D4D7D9DCDFE2E6E9ECF0F3F7FA61
:10246000FE0000004FEA400C0CF1807CBCF17E4F76
:1024700028BF7047B0F1C04000F02BB990EA010FBF
:102480000CEAD11348BF42F48072624538BF6345FD
:1024900007D213F47F0F16D080EA010000F000404D
:1024A000704710B500F0CFF8097EFC3E00F005B88B
:1024B00080EA010000F00040704780EA010000F06F
:1024C000004000F006B912F47F0F04BF02487047C5
:1024D00080EA010000F0FDB80000C07FC10DD1F11D
:1024E0009E0206DB4FEA002343F0004323FA02F08A
:1024F0007047004207D54FEA4001B1F1FE4F02D2CA
:102500004FF00000704710B500F09DF8499224800C
:10251000002070476FEA200070470000B0FA80F397
:1025200010FA03F2C3F19D030AD0D90501EB122082
:10253000530638BF704700F1010008BF20F00100CA
:10254000704700004FF47F0C1CEAD0121EBF1CEA3B
:10255000D11392EA0C0F93EA0C0F00F0478090EA37
:10256000010F48BF42F480724FF0004C4CEA00204B
:102570004CEA012102EB0302A0FB0113A2F50002C9
:10258000002918BF43F001035B0028BF4FEA330363
:1025900042EB22425FEA132C4CEBC2502EBFBCEB45
:1025A000436FB2F57C0F70474FEA036CBCF1004FEC
:1025B00008BF20F00100B2F57C0F38BF70470BD583
:1025C00082F0FF0212F5803FC8BF704700F1C040A3
:1025D000D8BF00F00040704700F5000C5FEA4C0CDB
:1025E00048BF7047B0F1C04000F073B890EA010FE7
:1025F0000CEAD11348BF42F48072624538BF63458C
:1026000004D280EA010000F00040704710B500F0ED
:102610001AF800BF8900013E00F007B800F009B8C1
:102620005FEA410C5FEA1C6C08D080EA010000F010
:1026300050B85FEA400C5FEA1C6CF6D14FF00040E6
:10264000A0F5800070470EF1020E2EF0030E5EF82A
:10265000044B244204D44FEA4102B2F17F4F11D817
:102660004FEA4003B3F17F4F0CD80ED14FEAD07C34
:10267000B2F17F4F0CEB4C0C0CF1020C08BF4CEB91
:10268000D17C04E04FF0080C01E04FEAD17C0CEB68
:102690004C0324FA03F404F00704B4F1040C06D24A
:1026A0000EEB840CBDE810404CF0010C6047DFE8F5
:1026B0000CF0070802024FF00040A0F5800010BDAA
:1026C0000846420018BFD2F1807288BF00F0004077
:1026D00010BDFF2141EAD050C005704780F0004096
:1026E00090EA010F7FF5DDAD81F0004100F007B801
:1026F00090EA010F48BF81F000413FF5D2AD421A88
:1027000004D882F00042A0EB020011444FEAD052FC
:102710004FF07F4C1CEA410FA2EBD15318BF9CEA4B
:10272000026F4AD04FF0004C4CEA00204CEA0121E5
:1027300021FA03FCB0EB0C0C0FD412F0FE0F36D0D4
:102740005FEA4C001DD5001240EBC25038BF704705
:102750001CF03F0F18BF70470BE0A2F101025FEAC7
:102760001C2040EBC25038BF70471CF07F0F18BFD1
:102770007047C3F12003994014BF401E20F00100B0
:10278000704780084FEA122308BF7047B0FA80FCF8
:10279000A2EB0C02CCF1280C60FA0CF093EA122F99
:1027A00004BF00EBC25070474FEAC3707047130A72
:1027B0005FEADC1008BF7047F6E79CEA026F04D0BE
:1027C00010EA5C0F08BF0020704710B5FFF73BFF11
:1027D00040DFF63E81F000407047FEF7C8BC0000C5
:1027E00002400000000000A00000000005400000C2
:1027F000000000C8000000000C4000000000409CE9
:1028000000000000194000000020BCBE00000000D5
:1028100034400000BFC91B8E00000004B54000001A
:10282000504BCFD06607E2CF010000006C410000A2
:102830003E8251AADFEEA73401000000D942000019
:10284000DCB5A0E23A301F97FFFFFFFFB445000060
:10285000FD25A0C8E9A3C14FFFFFFFFFFF3F000018
:102860000000008000000000FF3F0000000000802A
:1028700000000000B0280008000000202000000038
:1028800028010008D0280008200000206002000075
:10289000440100081C00000043000000F8FFFFFF97
:1028A0000C0000000E0000000F0000002E000000D1
:1028B0000000000000000000000000000000000018
:1028C0000000000000000000000000000000000008
:04000005080000ED02
:00000001FF
